:1000000014C03BC03AC039C038C037C036C035C054
:1000100005C333C032C031C031C02FC02EC0006014
:1000200000EE000BEC00EE00F08011241FBECFE5C7
:10003000D1E0DEBFCDBFEEE1F0E040E017C0B5910A
:10004000A59135912591059107FD0CC0959185915C
:10005000EF01F92FE82F05900D92A217B307D9F7FA
:10006000FE0104C01D92A217B307E1F7EA32F407BC
:0A00700031F70ED000C0F894FFCF66
:02007A00C2CFF3
:10007C001F920F920FB60F9211240F900FBE0F907C
:04008C001F90189514
:1000900032D3F5D23AD290D2DFD124E630E040E03C
:0A00A00050E061E084E6BED1F7CF26
:1000AA00EF92FF920F931F93CF93DF9300D000D06C
:1000BA001F92CDB7DEB78E010F5F1F4F95E0F80193
:1000CA0011929A95E9F78F3F09F466C045E0682FC7
:1000DA00C801FDD27E01F6E0EF0EF11CF801908115
:1000EA00492F4071440F440F892F881F8827881F82
:1000FA00242F280F392F3074432F50E055954795F8
:10010A00559547955595479555954795420F907240
:10011A00292F30E035952795842F820F90E064D2FD
:10012A006091EE008091EF008F5F8093EF00EFD136
:10013A00F80191918F01892F8270282F220F220FA7
:10014A00220F892F81708295880F880F807C820FF9
:10015A00292F2470820F93FB222720F9820F90E027
:10016A0043D26091EE006F5F6093EE008091EF00E2
:10017A0081508093EF00CBD1E016F10609F0AECFA3
:10018A000F900F900F900F900F90DF91CF911F91CA
:10019A000F91FF90EF90089515E080E090E024D24F
:1001AA006091EE008091EF008F5F8093EF00AFD1F6
:1001BA0080E090E019D26091EE006F5F6093EE00EC
:1001CA008091EF0081508093EF00A1D1115029F75F
:0201DA00D7CF7D
:0C01DC00803211F081D163CF8FEF61CF32
:1001E800CF93DF93C82FD0E0C757DF4F888190E0C7
:1001F800FCD16091EE008091EF008F5F8093EF005B
:1002080087D1898190E0F1D16091EE006F5F6093B2
:10021800EE008091EF0081508093EF00DF91CF9145
:0202280077C19C
:10022A004FE760E086E088D14FE760E087E084C16D
:10023A00CF93DF9360E086E06AD1C1E7D0E089918D
:10024A00C8DF80E0C938D807D1F7DF91CF91089588
:10025A00EF92FF920F931F93CF93DF9300D01F92D9
:10026A00CDB7DEB7282F8DE28A838B832436F1F14E
:10027A00822F6AE088D4382F982F990F990F980FF8
:10028A008DE2890F8983932F9295990F907E931B04
:10029A00990F990F931B990F290F922F990F990F65
:1002AA00290F235D2A8322E030E08E010E5F1F4F63
:1002BA00EE24E394F12CEC0EFD1EE20EF31EF0DEAA
:1002CA000E151F0539F0F80181918F01E9DE0E152F
:1002DA001F05C9F785E201D10F900F900F90DF91AA
:1002EA00CF911F910F91FF90EF90DACE83E389832C
:0602FA0023E030E0DACF42
:10030000DF92EF92FF920F931F93CF93DF93D82E3C
:1003100060E080E001D186E067DF88E065DF8AE0A9
:1003200063DF8CE061DF6091EE006F5F6093EE0051
:100330008091EF00F1D080E057DF82E055DFCD2DD6
:10034000D0E07E0185E0E81AF1081E141F0444F590
:1003500000E010E084E048DF0F5F1F4F0E151F051F
:10036000CCF32597CF35D10534F482E03DDF2196DB
:10037000CF35D105D1F782E037DF80E035DF6091FE
:10038000EE006F5F6093EE008091EF00C5D08D2D81
:10039000DF91CF911F910F91FF90EF90DF905DCF94
:0603A000C0E0D0E0E2CF56
:1003A600FF920F931F93CF93DF9320E031EE45EF3B
:1003B60055E0F7D3F22E20E836E948E950E0F1D3CC
:1003C600022F20E432E44FE050E0EBD3122F60E03E
:1003D60082E09FD0C4E6D0E08991FDDE80E0C1379F
:1003E600D807D1F78F2D880F880F8F0D835D5ADEC2
:1003F6008EE275D057DE802F880F880F800F835DC1
:1004060051DE812F880F880F810F835D4BDE86E5D5
:0E04160066D0DF91CF911F910F91FF9043CEE2
:10042400CF92DF92EF92FF92CF93C62F69017A01A8
:1004340065DFC701B601B5DFC11106C0CF91FF90DA
:10044400EF90DF90CF90EFCECF91FF90EF90DF90C1
:04045400CF90F1CE86
:10045800CF92DF92EF92FF928091ED00833011F0FE
:1004680083E0E3D01CD1BC0180E090E071D29B0115
:10047800AC0160E070EE8BE296E4D5D120E030E08C
:1004880040E854E4F3D238D26B017C0180E0F6D026
:10049800BC0180E090E020916000309161004091C3
:1004A80062005091630057D320E137E240E050E00A
:1004B80077D3CA01B901A70196014DD325E030E0F1
:1004C80040E050E06DD3CA01B9016C0D7D1D8E1D51
:0C04D8009F1DFF90EF90DF90CF900895E3
:1004E400282F80919900281761F080E08F5FE82F12
:1004F400F0E0E756FF4F90819213F8CF6091CC0063
:0605040023C380E0FBCFE1
:0E050A0020E04AE150E063ED70E08CE33AC17E
:100518008093EF006093EE00EDECF0E0806B818358
:10052800862F8F70838362956F706061658320E08A
:0A05380046E050E0BF018CE325C14E
:100542000F931F93CF93DF93C62F042FE4DFDFD0E7
:1005520040E060E088E7F9D041E061E080E0F5D07A
:10056200882359F020E046E050E06DEC70E08CE327
:10057200DF91CF911F910F9108C140E060E080E4CC
:10058200E4D041E061E080E0E0D00F5F0C1B10E0BE
:100592000115110571F0C0E0D0E040E060E080E0BC
:1005A200D4D041E061E080E0D0D02196C017D107DD
:0605B200A1F7BAD0D7CF7B
:1005B800CF93C0E04FE760E08C2FBFDFCF5FC8303C
:1005C800C9F71092EF001092EE0080EB8093CE00F6
:1005D8001092D00080E18093D20020E046E050E005
:0A05E8006DEC70E08CE3CF91CDC004
:1005F200CF93DF9300D0CDB7DEB790E499838A839F
:1006020020E042E050E0BE016F5F7F4F8CE3BDD03F
:0A0612000F900F90DF91CF91089533
:10061C001F920F920FB60F921124349A0F900FBEA7
:06062C000F901F901895CD
:10063200CF93DF9300D000D0CDB7DEB790E299839D
:1006420094E09A8390E19B8398E09C8397B1907F9A
:1006520097B994B314BA97B1982B97B924B3FE0102
:10066200E80FF11D9181922B94BB8093ED000F90C6
:0C0672000F900F900F90DF91CF91089532
:06067E0087E886B908952B
:10068400882341F085B7886285BF84B125B190E0A5
:10069400922B0895369A86B184B125B190E0922BBD
:0206A4000895B7
:1006A60037B187B1807F87B987B18C6087B989EF09
:1006B60090E00197F1F700C0000085B7886285BF1A
:1006C60084B125B197B1907F97B937B990E0922B55
:0206D600089585
:1006D800442361F0FC019C01240F311D6EBBE09A9C
:0E06E8008DB381936F5FE217F307C1F708959A
:1006F6008FEF8FB988B3856088BB87B3856087BB6A
:0A0706008AE28DB980EF8EB90895E4
:10071000C09883E08A95F1F700C0C298B299FECFE5
:0A07200083E08A95F1F700C0089508
:10072A008FEF8FB9B89AC098C29AB29BFECF82E077
:10073A008A95F1F70000C09A83E08A95F1F700C024
:02074A00089510
:10074C0090EF9EB98FB9411119C0B89A8FB9662331
:10075C0019F08EB18E608EB9C09A8BE292E09A95A8
:10076C00F1F700008DB9B29BFECF93E09A95F1F7AB
:10077C0000C08DB9769BF2CF8FB10895B898E7CFB2
:10078C00DF92EF92FF920F931F93CF93DF93EB01C6
:10079C008A01E22EC09893E09A95F1F700C0C298B6
:1007AC00B299FECF93E09A95F1F700C0880F40E024
:1007BC0060E08E29C5DF41E061E080E0C1DF81119E
:1007CC0022C081E0DE2CD82602C081110DC04E2D36
:1007DC0060E08881B5DF89934D2D61E080E0B0DF6A
:1007EC00F82E0150110989F781E0E816B1F097DF76
:1007FC0081E0F11009C0DF91CF911F910F91FF9013
:10080C00EF90DF9008958BDF80E0DF91CF911F9107
:10081C000F91FF90EF90DF90089540E061E090DF42
:02082C00E6CF15
:04082E0001D0E7C04E
:100832000BC0DED040F0D5D030F021F45F3F19F08C
:10084200C7C0511110C1CAC0EBD098F39923C9F3A4
:100852005523B1F3951B550BBB27AA2762177307C4
:10086200840738F09F5F5F4F220F331F441FAA1F78
:10087200A9F333D00E2E3AF0E0E830D09150504038
:10088200E695001CCAF729D0FE2F27D0660F771FE6
:10089200881FBB1F261737074807AB07B0E809F0C8
:1008A200BB0B802DBF01FF2793585F4F2AF09E3F5D
:1008B200510568F08DC0D7C05F3FECF3983EDCF382
:1008C200869577956795B795F7959F5FC9F7880FD6
:1008D200911D9695879597F90895E1E0660F771F28
:1008E200881FBB1F621773078407BA0720F0621BB9
:0E08F200730B840BBA0BEE1F88F7E095089588
:1009000098D088F09F5790F0B92F9927B751A0F051
:10091000D1F0660F771F881F991F1AF0BA95C9F793
:1009200012C0B13081F09FD0B1E008959CC0672F14
:10093000782F8827B85F39F0B93FCCF38695779543
:100940006795B395D9F73EF490958095709561952C
:080950007F4F8F4F9F4F089568
:10095800E89409C097FB3EF4909580957095619551
:100968007F4F8F4F9F4F9923A9F0F92F96E9BB2707
:100978009395F695879577956795B795F111F8CF83
:10098800FAF4BB0F11F460FF1BC06F5F7F4F8F4FEE
:100998009F4F16C0882311F096E911C0772321F0E4
:1009A8009EE8872F762F05C0662371F096E8862F7C
:1009B80070E060E02AF09A95660F771F881FDAF7D3
:0A09C800880F9695879597F908951A
:0C09D20097F99F6780E870E060E00895EE
:0609DE009FEF80EC08957C
:0E09E40000240A941616170618060906089530
:0E09F20000240A941216130614060506089532
:100A0000092E0394000C11F4882352F0BB0F40F41C
:100A1000BF2B11F460FF04C06F5F7F4F8F4F9F4F5C
:020A2000089537
:100A220057FD9058440F551F59F05F3F71F047959D
:100A3200880F97FB991F61F09F3F79F08795089582
:100A4200121613061406551FF2CF4695F1DF08C0A1
:100A5200161617061806991FF1CF869571056105BE
:040A62000894089557
:0E0A6600E894BB2766277727CB0197F9089500
:040A740001D0C4CF1A
:100A780009C0B4DF28F0B9DF18F0952309F0A5CF35
:100A8800AACFEECFCADFA8F39923D9F35523C9F328
:100A9800950F50E0551FAA27EE27FF27BB270024F4
:100AA8000894679520F4E20FF31FB41F0A1E220F63
:100AB800331F441FAA1F6695A9F7779530F4F30FE3
:100AC800B41F0A1E121E08F46395330F441FAA1F91
:100AD800221F769599F7879520F4B40F0A1E121EE7
:100AE800631F440FAA1F221F331F8695A9F7862F5D
:100AF800712D602D11249F5750408AF0E1F0882312
:100B08004AF0EE0FFF1FBB1F661F771F881F91500B
:100B18005040A9F79E3F510570F057CFA1CF5F3FD6
:100B2800ECF3983EDCF3869577956795B795F7953E
:100B3800E7959F5FC1F7FE2B880F911D96958795C6
:040B480097F908957C
:100B4C00002480FD060E660F11F08695D1F7802DDE
:020B5C000895FA
:100B5E00EE27FF27AA27BB2708C0A20FB31FE41F4B
:100B6E00F51F220F331F441F551F969587957795B6
:100B7E00679598F37040A9F7009799F7BD01CF01DB
:020B8E000895C8
:100B9000991B79E004C0991F961708F0961B881FCF
:080BA0007A95C9F780950895CC
:100BA800A1E21A2EAA1BBB1BFD010DC0AA1FBB1F69
:100BB800EE1FFF1FA217B307E407F50720F0A21BDB
:100BC800B30BE40BF50B661F771F881F991F1A9448
:100BD80069F760957095809590959B01AC01BD0172
:040BE800CF0108959C
:040BEC005973070032
:0D0BF00043454C4C20564F4C544147453A6C
:100BFD0042415454455259204C4556454C20435280
:080C0D0049544943414C000029
:100C1500FFFF0140F14F04011005401100410000A4
:100C2500212526272B2C2D2E2F30313233343536E6
:100C35003738393A3B3C3D3E3F41424344454647C0
:100C450048494A4B4C4D4E4F5051525354555657A7
:030C550058595A91
:010C58000596
:060C590080B08000801055
:100C5F00808D801480AF8020800080218000807F75
:0A0C6F008022800080078081801F32
:010C7900FF7B
:00000001FF
